:020000040000FA
:200000006023FE1F2D2A000015290000292A0000292A0000292A0000292A0000292A00000C
:20002000000000000000000000000000292A0000292A000000000000292A0000292A000074
:20004000FFFFFFFFFFFFFFFFFFFFFFFFFFFFFFFFFFFFFFFFFFFFFFFFFFFFFFFFFFFFFFFFC0
:20006000FFFFFFFFFFFFFFFFFFFFFFFFFFFFFFFFFFFFFFFFFFFFFFFFFFFFFFFFFFFFFFFFA0
:20008000FFFFFFFFFFFFFFFFFFFFFFFFFFFFFFFFFFFFFFFFFFFFFFFFFFFFFFFFFFFFFFFF80
:2000A000FFFFFFFFFFFFFFFFFFFFFFFFFFFFFFFFFFFFFFFFFFFFFFFFFFFFFFFFFFFFFFFF60
:2000C000FFFFFFFFFFFFFFFFFFFFFFFFFFFFFFFFFFFFFFFFFFFFFFFFFFFFFFFFFFFFFFFF40
:2000E000FFFFFFFFFFFFFFFFFFFFFFFFFFFFFFFFFFFFFFFFFFFFFFFFFFFFFFFFFFFFFFFF20
:20010000FFFFFFFFFFFFFFFFFFFFFFFFFFFFFFFFFFFFFFFFFFFFFFFFFFFFFFFFFFFFFFFFFF
:20012000FFFFFFFFFFFFFFFFFFFFFFFFFFFFFFFFFFFFFFFFFFFFFFFFFFFFFFFFFFFFFFFFDF
:20014000FFFFFFFFFFFFFFFFFFFFFFFFFFFFFFFFFFFFFFFFFFFFFFFFFFFFFFFFFFFFFFFFBF
:20016000FFFFFFFFFFFFFFFFFFFFFFFFFFFFFFFFFFFFFFFFFFFFFFFFFFFFFFFFFFFFFFFF9F
:20018000FFFFFFFFFFFFFFFFFFFFFFFFFFFFFFFFFFFFFFFFFFFFFFFFFFFFFFFFFFFFFFFF7F
:2001A000FFFFFFFFFFFFFFFFFFFFFFFFFFFFFFFFFFFFFFFFFFFFFFFFFFFFFFFFFFFFFFFF5F
:2001C000FFFFFFFFFFFFFFFFFFFFFFFFFFFFFFFFFFFFFFFFFFFFFFFFFFFFFFFFFFFFFFFF3F
:2001E000FFFFFFFFFFFFFFFFFFFFFFFFFFFFFFFFFFFFFFFFFFFFFFFFFFFFFFFFFFFFFFFF1F
:20020000FFFFFFFFFFFFFFFFFFFFFFFFFFFFFFFFFFFFFFFFFFFFFFFFFFFFFFFFFFFFFFFFFE
:20022000FFFFFFFFFFFFFFFFFFFFFFFFFFFFFFFFFFFFFFFFFFFFFFFFFFFFFFFFFFFFFFFFDE
:20024000FFFFFFFFFFFFFFFFFFFFFFFFFFFFFFFFFFFFFFFFFFFFFFFFFFFFFFFFFFFFFFFFBE
:20026000FFFFFFFFFFFFFFFFFFFFFFFFFFFFFFFFFFFFFFFFFFFFFFFFFFFFFFFFFFFFFFFF9E
:20028000FFFFFFFFFFFFFFFFFFFFFFFFFFFFFFFFFFFFFFFFFFFFFFFFFFFFFFFFFFFFFFFF7E
:2002A000FFFFFFFFFFFFFFFFFFFFFFFFFFFFFFFFFFFFFFFFFFFFFFFFFFFFFFFFFFFFFFFF5E
:2002C000FFFFFFFFFFFFFFFFFFFFFFFFFFFFFFFFFFFFFFFFFFFFFFFFFFFFFFFFFFFFFFFF3E
:2002E000FFFFFFFFFFFFFFFFFFFFFFFFFFFFFFFFFFFFFFFFFFFFFFFFFFFFFFFFFFFFFFFF1E
:20030000FFFFFFFFFFFFFFFFFFFFFFFFFFFFFFFFFFFFFFFFFFFFFFFFFFFFFFFFFFFFFFFFFD
:20032000FFFFFFFFFFFFFFFFFFFFFFFFFFFFFFFFFFFFFFFFFFFFFFFFFFFFFFFFFFFFFFFFDD
:20034000FFFFFFFFFFFFFFFFFFFFFFFFFFFFFFFFFFFFFFFFFFFFFFFFFFFFFFFFFFFFFFFFBD
:20036000FFFFFFFFFFFFFFFFFFFFFFFFFFFFFFFFFFFFFFFFFFFFFFFFFFFFFFFFFFFFFFFF9D
:20038000FFFFFFFFFFFFFFFFFFFFFFFFFFFFFFFFFFFFFFFFFFFFFFFFFFFFFFFFFFFFFFFF7D
:2003A000FFFFFFFFFFFFFFFFFFFFFFFFFFFFFFFFFFFFFFFFFFFFFFFFFFFFFFFFFFFFFFFF5D
:2003C000FFFFFFFFFFFFFFFFFFFFFFFFFFFFFFFFFFFFFFFFFFFFFFFFFFFFFFFFFFFFFFFF3D
:2003E000FFFFFFFFFFFFFFFFFFFFFFFFFFFFFFFFFFFFFFFFFFFFFFFFFFFFFFFFFFFFFFFF1D
:20040000FFFFFFFFFFFDFFFFFCFFFFFFFFFFFFFFFCFFFFFFFFFFFFFFFCFFFF00FFFFFF0005
:20042000FCFF0F20FFFF0F20FCFF7F40FFFF7F40FCFF0D40FFFF0D40FFFFFFFF0348044BC5
:20044000834202D0034B03B118477047F006FE1FF006FE1F000000000548064B1B1AD90F0C
:2004600001EBA301491002D0034B03B118477047F006FE1FF006FE1F0000000010B5064C6C
:20048000237843B9FFF7DAFF044B13B10448AFF300800123237010BD0807FE1F00000000C5
:2004A000102E000008B5054B1BB105490548AFF30080BDE80840FFF7CFBF00BF0000000038
:2004C0000C07FE1F102E000000B585B0002368468DF8003000F068FD48B901A800F044FC0F
:2004E00058B901A800F086FF05B05DF804FB064B064A0748142102F0DDF9064B034A0448ED
:20050000282102F0D7F900BFB82B0000042C0000DC2B0000F02B0000FFF7D6BF704700BFDB
:2005200008B5FFF7F9FF002008BD00BF02F0E2BA00F000B88068903820F07F00A0F5807072
:20054000704700BF38B583680C46A3F1900121F07F0101232246054600F0A2FE00280BDBD0
:2005600064B1284600F028FF2378834208BF032305D12370002038BD012038BD2378012B39
:2005800018BF0223F5E700BF30B5836887B00D4602AAA3F110011023044600F081FE002805
:2005A0004FDB204600F008FF02AB06A901E08B424AD013F8012B9042F9D02D4B029A9A42CE
:2005C00044D002232B70A168903921F07F0101230DF10702A1F58071204600F061FE002855
:2005E0002FDB9DF8073003F00F021B092B7120466A7000F0E1FE9DF80730834234D1012299
:2006000000236A702B71A268903A22F07F010123AA1C8039204600F043FE002811DB204627
:2006200000F0CAFEAB78984208BF032302D0012B18BF0223AB70E91C2046FFF783FF07B069
:2006400030BD012007B030BD0323BBE7094B039A9A42B6D1084B049A9A42B2D1074B059A8B
:200660009A42AED10123ADE76B78042BCBD9C6E780002DE15D29410B8D77679C110F1F8AD4
:2006800030B587B004A9012000F0D2FD10B1FF2007B030BD049802A9FFF776FF0446049895
:2006A00000F0FCFD002CF2D101A9022000F0C0FD002846D003208DF813009DF80840284BA0
:2006C0009DF80BE0B4F1010C18BF4FF0010C03F112011A78042A06D0052A18D0121BB2FA38
:2006E00082F252096AB15A78042A05D0052A23D1421E18BF012222B19A78042A09D072451B
:2007000007D006338B42E4D1012007B030BD6246E8E7DA78042A03D09DF813509542F0D128
:200720001A79042A03D09DF80A509542E9D15879831E022BACD9AAE7121AB2FA82F2520949
:20074000D9E704A90198FFF71FFF0446019800F0A5FD012CAED0002C99D19DF81000ACE791
:20076000342C00002DE9F04FDFF850B1B1B014A83C9F3A9C3B9EDDF8F8901D46DBF8003082
:200780000293904600F01AFC002114A800F01AFC17B13D9B002B69DCB8F80A20B8F8083033
:2007A0001344D8F80C2013EB020A23D00027CDF80C8003E000F066FCBA4519D9AAEB0703AC
:2007C000B34228BF334639462246284698461F4400F066FD84464246214614A8BCF1000FAA
:2007E000E8D0DBF800300293029831B0BDE8F08FDDF80C800CA914A800F094FCB9F1000FFF
:2008000012D00CAC0FCCC9F80000C9F80410C9F80820C9F80C300FCCC9F81000C9F8141056
:20082000C9F81820C9F81C300023009341464FF6FF732A4606A800F00BFB04460028D0D197
:2008400028460B9EFFF774FE864205D9C9E713D1BDF81230102B15D00DF1120304AA05A959
:2008600006A800F041FB0028F1DABAE739461A4614A800F007FC8FE7002CB2D0029831B0DD
:20088000BDE8F08FBDF81040202CAAD10599234614AA284600F004FD0028A2D1224614A984
:2008A0000CA8FFF743FE0290034B1B6883424FF00104D1D095E700BF6807FE1FD406FE1F82
:2008C000F0B5074683B000200E4600F06BFD01A9C0B200F0ADFC98B90546019800F06CFDE4
:2008E0000446019800F0DAFC2C2303FB06714B1E033101E08B4205D013F8012FA242F9D083
:200900004FF0FF35284603B0F0BD00BF30B5042583B0426A019504460DEB0501012000F0FB
:2009200025FD98B9019B226DA3620DEB05010220019500F01BFD054660B9019B206A636504
:2009400000F00CFDE065284603B030BD0125284603B030BD0925284603B030BD2DE9F84F7E
:20096000DDE90AB626B3144F884691469A46002404E000F09FFCC0B9A64219D9351BB5F550
:20098000806F28BF4FF4806504EB0A012B463A46404600F085FC844604EB0B012B463A46C1
:2009A00048462C44BCF1000FE3D00120BDE8F88F0020BDE8F88F00BFAC08FE1F2DE9F04754
:2009C0000446AB4AAB4B4262884600218CB00846236500F0E7FC04F12001C0B200F028FCCE
:2009E000002840F09281012100F0DCFC04F14C01C0B200F01DFC002840F087812046FFF729
:200A000085FF20B10123984284F8583016D0002322461946204600F0B5F9054658B904F15A
:200A20002C0903464A460121204600F0ABF9204600F0C6F978BB012384F8583001220023D6
:200A40008DF8272007938C4B22689A420BD08B4B1D68E06C00F022FC206A00F01FFC284660
:200A60000CB0BDE8F087079B01330793079B012B00D0FEE70023CDE90833CDE90A33226A18
:200A80007F49537888F8043053680D68C8F80830C8F80040DDE77B4B099301272846CDE975
:200AA0000A550897FFF7ECFD831E022B064640F28A80C3B2042B84F858308DF8273078D82F
:200AC000012B6BD906A9012000F0B2FB002840F0238107A9022000F0ABFB0646002840F031
:200AE0002281A76A002F00F0FB800546636A069803EBC5033146D3F804A0524600F0F6FBDD
:200B0000002840F0FB800135AF425644EED10023CDE90036DDE906212046FFF71FFF0028E4
:200B20004AD1236D01465A68079800F0DFFB002840F00781D4E91432013A196853F832007C
:200B400003EBC203411A5A68079800F0CFFB0546002840F0EF80069800F0A0FB079800F0A2
:200B60009DFB94F85830FF2B1CD0012B07953FF46AAF08AB22460021204600F003F90028E9
:200B80007FF465AF08AB4A460121204600F0FAF8394B22689A423FF466AF58E72BD0FF2393
:200BA00084F85830384B394A394840F65A0101F081FE052BF3D17AE0364B374A344840F2AB
:200BC0000C6101F077FE2D4B284639461D6800F0E9FB07A9C0B200F02BFB78B1284F3B6809
:200BE000AB4267D02D4B1B68AB425BD1012384F858308DF827300023079324E7394620460C
:200C0000FFF75EFE002866D0E36BDB0663D494F84020237D9A420BD852D394F84120637D81
:200C20009A4205D84CD3B4F84220E38A9A4247D31B4B009300214FF480730193CDE90311BD
:200C4000079B02914A460846FFF78CFD05460A4BE26A07989A4245D08268094F002100F033
:200C600045FB0E4B07981D6800F018FBB7E700BF8C08FE1F6C08FE1F3DB8F396D406FE1FA0
:200C80006807FE1F01010001842C0000AC2C0000502C0000482C0000982C0000D006FE1F96
:200CA0006C07FE1F052384F858308DF82730002307935EE7F3B284F858308DF8273001E72D
:200CC00000212046FFF7FCFD0028B1D007980021826800F00BFB1E4B07981D681D4FC3E7B2
:200CE0003E4614E7A16BA38E82681A4F5B18B5D29342B3D23B68AB42B6D0AFE7164B174A23
:200D0000174840F2554101F0D5FD134B154A144840F2F17101F0CEFD0F4B104A104840F242
:200D20004B4101F0C7FD0C4B0C4A0D4840F24F4101F0C0FD084B094A094840F2B24101F0F3
:200D4000B9FD054B054A064840F2AA4101F0B2FDD006FE1F6807FE1F482C0000882C00008C
:200D6000502C0000AC2C0000054B10B5602204460021184601F0CEFE2146FFF71FFE10BDBB
:200D8000AC0CFE1F10B5002082B0144600F00AFB01A9C0B200F04CFA10B1012002B010BD65
:200DA000224601462023019800F07AFA0446019800F074FA201E18BF012002B010BD00BF8F
:200DC000F0B5866A042E2CD8476D042F29D84FF0000E72467346F4467146B34201D3BA42EC
:200DE0002ED2614510D01ED2446A04EBC304BEF1020F646803F10103214412D0B3424FF01A
:200E0000010EECD26145EED1456A046D05EBC30504EBC2046D6864682944A44401330132B6
:200E2000DBE70020F0BD046D04EBC204BEF1010F646802F10102A444F3D04FF0020ECCE7CF
:200E4000B342EED1D01BB0FA80F04009F0BD00BF2DE9F04782B09DF828A0002840D00D46BD
:200E600000293DD01746002A3AD00E899946CB681E44042304460DEB03023146384600F04D
:200E80000FFA804660BBBDF804306A8946F608118B4217D022BB46F60712934220D16B8997
:200EA000BDF80620676033441A440436C4E90462A4F80890256084F80AA0E360404602B014
:200EC000BDE8F087BDF80610914209D101AA31440423384600F0E4F910B9BDF80430DAE779
:200EE0004FF0FF38EAE700BF002859D02DE9F0431F46036883B00446002B39D04068002801
:200F000036D09046D4E90452AA4245D989464FF6FF761EE0042321690DEB030200F0C0F9FA
:200F200030BBA37A226913B1E368934234D92389BDF80610B34201F104051ED0BDF804C05F
:200F40009C451AD0636915449D42256124D2D4E900305B89002BDDD0E368AB42DAD1291D74
:200F6000042321610DEB030200F09AF90028D8D04FF0FF3003B0BDE8F08317B1BDF804308E
:200F80003B800432C9F800202369A8F800102B44236103B0BDE8F083012003B0BDE8F08399
:200FA0004FF0FF30704700BF08B501F0F9F9002814BF6FF06F00002008BD00BF702200218D
:200FC00001F0A8BD01293BD810B41F4C1F4A0029034618BF22461E4C1E489A601E4A996604
:200FE00018BF22461D4C1E491A6108BF01461D48D9601D491D4A18BF2146A4F1215418BFCF
:201000000246A4F56D341A485961A4F28F2419499A6118BF0146184A196218BF2246174CEF
:20102000DA614FF001014FF00000154A83F86C1018BF224618605DF8044B58605A62704719
:201040006FF07300704700BFC1059ED86A09E6673070DD17BB67AE853C6EF372F70E5939BD
:20106000367CD507FFC00B31A54FF53A510E527F64F98FA71F83D9AB9B05688CBEFA4FA49C
:201080005BE0CD19002A4AD02DE9F843036803F03F079B1803604FF0020305460E461446A3
:2010A00080F86C3002D34368013343606FB1C7F1400844451BD205F12800224631463844B6
:2010C00001F030FD0020BDE8F8833F2CF3D924F03F073A463146284600F074F80028F2D175
:2010E00004F03F043E44002CECD00027E3E705F128094246314609EB070001F013FD4946AD
:201100004022284600F05EF80028DCD12744A7F140043F2C4644DAD8002CD3D0E5E700203B
:20112000704700BF026802F03F028318013270B5382A0D4600F128064FF08001044683F850
:20114000281006EB02002AD8C2F13802002101F0E1FCD4E900305A0FDB0042EAC0021BBA92
:2011600012BA636603232266314684F86C304022204600F027F888B9A3682B60E3686B60D9
:201180002369AB606369EB60A3692B61E3696B61236AAB61A36E0BB9636AEB6170BDC2F18A
:2011A0004002002101F0B6FC40223146204600F009F80028F2D101463822304601F0AAFC60
:2011C000C7E700BFF0B591B008AC1546064620220F462046002101F09DFCEB1C02219B08EC
:2011E00004910021029103930194CDE9063106F1080596F86C3005933A46009506AB05A954
:2012000004A801F0E9F880B9A4460446BCE80F00B060F16032617361BCE80F00B061F16152
:2012200032627362204611B0F0BD6FF06F04F9E770B5124D2B7804460E465BB1012C13D0DE
:20124000022C15D0002131600D4B0E4A0E48D42101F030FB0D4A0E4B1168186801F07EF9A1
:2012600040B901232B70E9E70A4B3360002070BD094BFAE74FF0FF3070BD00BF0C0DFE1FEC
:20128000BC2C0000202D0000CC2C0000182C00001C2C0000302D00003C2D0000704700BF59
:2012A00010B50446104664681A46214401F03AFC002010BD38B54568EFF310844FF0010EC6
:2012C0008EF3108840787F2803D0002084F3108838BD05488C460068114605EB0C0201F0D2
:2012E000B1F984F3108838BD1C2C000090F801C04368BCF17F0F01D00620704710B5104600
:20130000194472B1B1F5803F4FF0000334BF4FF4005C4FF4004C1A466344984202F10102AE
:20132000FAD8EFF31084012383F31088074B186801F09EF984F3108800B910BD044B054AA6
:20134000054840F2BD1101F0B5FA00BF1C2C0000F82C00000C2D0000CC2C00004078A0F1FB
:201360007F00B0FA80F04009C00170470138012802D900235B78FFDE10B44FF480341461D3
:201380004FF4C0344FF40043002094610424106053609360D3605361D3610C605DF8044B12
:2013A000704700BF29B101290CBF02204FF0FF3070470120704700BFFF20704710B5074C1C
:2013C00023780BB9002010BD054B186801F00EF808B92070F6E74FF0FF3010BD0C0DFE1F5B
:2013E0001C2C000081F30888BFF34F8FBFF36F8F004700BF02688368128970B5D418D6582C
:201400006568FFF7DBFF054A054B94600022314628469A80BDE87040FFF7E4BF00ED00E0C0
:20142000000D004010B5074C0749C4F8381100224FF08053C4F8F020636100F0D5FFC4F8AE
:201440000C0110BD00000C406A8097F5054B0648C3F8380100214FF00112C3F8F010C3F875
:201460000C21704700000C406A8097F538B50C4C0546FFF7EBFF0123A362284600F0B4FF1C
:20148000002343F2080143F21802E06361616261C4F8D031C4F8D0312368002BFCDB38BDD8
:2014A00000000C4038B50D4C0546FFF7CFFF0123C4F88030284600F097FF002343F20801A6
:2014C00043F21802C4F88C0061616261C4F8D031C4F8D0312368002BFCDB38BD00000C40A8
:2014E00038B50D4600F080FF054C6061284600F07BFF00236061C4F8D031C4F8D03138BD00
:2015000000000C402DE9F041124D1E46124BC5F8C43088461746D5F80441002CFBDA00F039
:2015200063FFC5F80001404600F05EFFC5F80001384600F059FFC5F80001304600F054FFBD
:20154000044AC5F80001D2F8C830DB03FBD4BDE8F08100BF00000C408D3A0F002DE9F041D2
:20156000124D1E46124BC5F8C43088461746D5F80441002CFBDA00F037FFC5F800014046F2
:2015800000F032FFC5F80001384600F02DFFC5F80001304600F028FF044AC5F80001D2F8B1
:2015A000C8309B03FBD4BDE8F08100BF00000C408D3A0E002DE9F0410F4D1E460F4BC5F8B2
:2015C000C43088461746D5F80441002CFBDA00F00BFFC5F80001404600F006FFC5F80001E8
:2015E000384600F001FFC5F80001304600F0FCFEC5F80001BDE8F08100000C408D3A0D006B
:2016000038B52B4C2B4B40F25222C4F80421C4F8C430D4F80431002BFBDA002000F0E4FEC6
:20162000234D254BC4F80001C4F8C430D5F80431002BFBDA002000F0D7FE1D4C1E4BC5F8E7
:201640000001C5F8C430D4F80431002BFBDA002000F0CAFE1949164AC4F8000142F2132316
:20166000C4F8C410236013689901FCD4144B104C4FF4C0505221D061C2F80411C2F8C43043
:20168000D4F80431002BFBDA002000F0ADFE0D49074AC4F8000142F21323C4F8C4102360AD
:2016A00013689B01FCD44FF4C053D36138BD00BF00000C4074370001F437000105080600CE
:2016C0004436070105080B00054B0022C3F83821C3F8D021C3F8D021C3F8D021704700BF70
:2016E00000000C402DE9F0475E4C00F065FC5E48C4F838010021012340F20172C4F8F01015
:201700006360C4F80C21D4F8BC7117F01F0740F0A480C4F88030A362E367636E1905C3F343
:20172000C026FAD40822514B6266C4F884304FF47063C4F83C3140F2523948F20403C4F8FE
:2017400088304B48C4F8049100F04EFE0546494800F04AFE8046484800F046FE82464748BC
:2017600000F042FE5246034641462846FFF7F6FE3C4D434BC4F88860C4F80491C4F8C430BD
:20178000D5F80431002BFBDA3E493F4BC5F800113E4AC5F800313E4BC5F800213D48C5F849
:2017A000003100F021FE04463B4800F01DFE06463A4800F019FE8046394800F015FE42466A
:2017C000034631462046FFF7C9FE364800F00CFE0446354800F008FE0646344800F004FE37
:2017E0008046334800F000FE4246034631462046FFF788FE41F2010200236A60C5F8D031AF
:20180000AB699A0406D42B4F2023C5F8BC313846BDE8F08740F20123C5F83C31264800F05D
:20182000E3FD0446254800F0DFFD0646244800F0DBFD8046234800F0D7FD42460346314688
:201840002046FFF7B7FE4023064AC5F8BC319369DB04FCD43846BDE8F0874FF00117384600
:20186000BDE8F08700000C406A8097F501010100A0C59B7193A8EF07CA9A5A9D3B930FD8D5
:201880000D3A0F00631780F5D14A0FE5EC31943EE35DB5CF167D8ED83BF69DAB9C85DBCD06
:2018A000939B2BB01B910579AF38C951EF1EC013E35F8708020001002CB55B803A3E3B339E
:2018C000ADFE00617AA85DAE70B5B34DD5F8BC6116F01F0640F02C82B04B40F201215222F4
:2018E000C5F88410C5F80861C5F80421C5F8C430D5F80431002BFBDAA948A74C00F074FD97
:20190000A84BC5F800015222C5F80421C5F8C430D4F80431002BFBDA002000F065FDA24BAF
:20192000C4F800010321C4F8EC30A04AC4F8EC1040F621038021C4F8EC209D48C4F8EC30CC
:201940009C4A9D4BC4F8EC109C49FFF7DBFD002347F601414FF4C002C4F8EC10E261C4F8F0
:20196000D031E369B3F1807F80F0BA818A494B6E1805FCD40823884A4B66536E1905FCD4F6
:2019800042F20803844953664B6E1A05FCD449F21C0048668A4B8B4A8B498C48FFF7DEFDB2
:2019A0007D4C00F081FC8A4A8A4842F62041C4F8EC10C4F8EC204FF40052C4F8EC20802332
:2019C0004FF41812C4F8E030E26102F5D112E261814AC4F8EC2000254FF42602C4F8EC5053
:2019E0007E49C4F8E0307E4BE2617E4AFFF78AFD4FF48003E361C4F8D051E3695B0200F182
:201A0000BB81636E1805FCD4774B634D1C2152226166C4F80421C4F8C430D5F80431002B24
:201A2000FBDA002000F0E0FC704AC5F8000148F21323C5F8E020584A2B6013689901FCD42E
:201A40006B494FF4C050D06142F21343C2F8C410514913600B689A01FCD44FF4C0534E4A5D
:201A6000CB61536EC3F3C0211B05FAD461484A4C516648F21323C2F8E000136023689D0158
:201A8000FCD44FF4C0515C4B5C4AE1615C485D49414DFFF737FD5C4B5222C4F80421C4F8D9
:201AA000C430D5F80431002BFBDA002000F09CFC394C564BC5F8000140F25232C5F804210C
:201AC000C5F8C430D4F80431002BFBDA002000F08BFCC4F80001002000F086FCC4F80001B1
:201AE000002000F081FCC4F80001012000F07CFC474B484A4849C4F800014848FFF702FD1C
:201B00004749484A4FF48073C4F8D030C4F8C41042F623032049C4F8E02023600B689C010B
:201B2000FCD4414A4FF4C050C86142F21323C1F8C420194A0B6013689801FCD43349164D36
:201B40004FF4C05042F21323D061C2F8C41013602B689901FCD44FF4C051344B344A3548CB
:201B6000E96135490C4CFFF7CDFCFFF749FD334B334A34493448FFF7C5FC344B5222C5F8EF
:201B80000421C5F8C430D4F80431002BFBDA002000F02AFC2E4B5DE000000C408C3B090066
:201BA00056BAC7260408070020A80030200001003DA22FD17019C4F275BAFA2C6AF6386D84
:201BC000B4CC975C852AC6A39D56552865FA15E240880038BA8CC26C60880038EE861FFB92
:201BE000E682D6CB68AFCB82C40C000100000480DD1E00418000048070E35E68A4C48A05D3
:201C0000060943AE49D0979004080B00050807002A5B50AD663B76499E23A4B4B9120D2A5C
:201C2000F7B700010000088105080B0032FE82A6050E30A71E8CD92FEBD3218C1525017A40
:201C40005DB92BDCE059DABAF17857CE040C0D0122D3869A4F4A5049C4F800014F48504DB6
:201C6000FFF750FCFFF7CCFC4E4B4F4A4F495048FFF748FC4F4B5222C4F80421C4F8C43029
:201C8000D5F80431002BFBDA002000F0ADFB444CC5F8000140F213236B6063685A00FCD513
:201CA000454AD4F800111164D4F800115164D4F800119164D4F80011404840F20223C4F867
:201CC0003C31D1643E4B3F4A3F49FFF773FC4023334AC4F8BC319369DB04FCD4304670BD8C
:201CE000E36903F07F43B3F1807F25D0E36903F07F43B3F1007F7FF453AE29494B6E18056B
:201D0000FCD40823264A4B66536E1905FCD442F20803234953664B6E1A05FCD449F21D0094
:201D200048662A4B2A4A2B492B48FFF717FC37E64FF00116304670BD19494B6E1B05FCD4FB
:201D40000823174A4B66536E1D05FCD442F20803134953664B6E1C05FCD449F21E0048668E
:201D600000F1C04000F53B101C4B1D4A1D4900F65D50FFF7F3FB13E61B4B1C4A1C491D48E8
:201D8000FFF718FC4023C4F8BC31A369DD04FCD4194EA3E7831A1C9501AFF2F79AF4C16EDB
:201DA00000000C406B8600B8BA47A1B2D3202FEF9D75423A840C0001100DFE1F4F97B14396
:201DC000AD520188AA64D9BB88D775EDC775F409F0408A34C76F3B3DA0D6F2DE416DE981E5
:201DE000C2FE47D4FB3BDB0F034C728A3C828FCAC1EF66DF84694479040001002DE9F84391
:201E0000634CD4F8BC6116F01F0640F0BC801D4647F20123C4F8843080465E4B5E48C4F892
:201E20000861894617465D495D4AFFF76BFB1123E36740F26473C4F8043104236367D4F82F
:201E40000431002BFBDAD8F80030C4F80031D8F80430C4F80031D8F80830C4F80031D8F8AA
:201E60000C30C4F80031D8F81030C4F80031D8F81430C4F80031D8F81830C4F80031D8F866
:201E80001C30C4F80031B422464BC4F804216367002F3BD03E4849460024D0F80431002B5C
:201EA000FBDA0B68C0F800314B68C0F800318B68C0F80031CB68C0F800310B69C0F8003100
:201EC0004B69C0F800318B69C0F80031CB69C0F800310B6AC0F800314B6AC0F800318B6A7A
:201EE000C0F80031CB6AC0F800310B6BC0F800314B6BC0F800318B6BC0F800311034CB6B84
:201F0000C0F80031A74201F14001C6D8204B5A6F5003C2F38041FAD44FF4B05259671C4CE6
:201F2000C3F80411DA61082140F2225259675A6063685A00FCD5D4F800312B60D4F80031D2
:201F40006B60D4F80031AB60D4F80031EB60D4F800312B61D4F800316B61D4F80031AB610B
:201F6000D4F80021104BEA611049114A1148FFF721FB4023064AC4F8BC319369DB04FCD4A8
:201F80003046BDE8F8834FF001163046BDE8F88300000C40243031D33FB39E88E36F8ABC6B
:201FA0009860463B0200000857AB448768FC59FB52700AB4CE2A18CF2DE9F041A44CA54995
:201FC000A54AC4F838114FF00110C4F80C0101212261A24BE16748F20702A26743F2080091
:201FE000C4F8343100F000FA054643F2180000F0FBF901462846FFF773FA2368002BFCDBB5
:202000004FF0011000F0F0F9FFF70CFA904A536E1805FCD408205066914B40F2174100F1DE
:202020008050916600F54050D36600F0DDF904468C4800F0D9F901462046FFF751FA844CB7
:202040002368002BFCDB012000F0CEF9FFF7EAF9854D8649824A012348F2BB00A362E5636F
:20206000E164C4F8803040F21F11C4F88C00C4F89420774AE367A167536E1905FCD40821AA
:20208000172351667A48936600F0AEF90446794800F0AAF901462046FFF722FA6C4A13686F
:2020A000002BFCDBDFF8F881734F694C0626012000F09AF9FFF7B6F9404600F095F9054693
:2020C000384600F091F901462846FFF709FA2368002BFCDB013EEAD15D4CDFF8C481664F59
:2020E0000626012000F080F9FFF79CF90123A362C4F88030E367636E1A05FCD4082363660C
:20210000404600F071F90546384600F06DF901462846FFF7E5F92368002BFCDB013EE0D1BA
:202120004B4CDFF88081554F0326012000F05CF9FFF778F948F68B0501235149DFF828C14A
:20214000A3624FF400420720C4F83CC0C4F88030C4F8B010C4F8D010C4F8A420C4F8C42072
:20216000C4F88C50E367A067636E1B05FCD40822172362664046A36600F036F90546384612
:2021800000F032F901462846FFF7AAF92368002BFCDB013EC9D1FFF759F90122394BA2627D
:2021A00043F20800E36300F01FF9044643F2180000F01AF901462046FFF792F9244A1368E3
:2021C000002BFCDB2F4D0624284600F00DF9FFF74DF9013CF8D12C4D0324284600F004F9B6
:2021E000FFF744F9013CF8D1284D0324284600F0FBF8FFF73BF9013CF8D1254D0324284682
:2022000000F0F2F8FFF732F9013CF8D12148214D00F0EAF8FFF746F90624284600F0E4F87B
:20222000FFF740F9013CF8D11B4D0324284600F0DBF8FFF737F9013CF8D1184D0324284683
:2022400000F0D2F8FFF72EF9013CF8D1BDE8F08100000C406A8097F56745230110325476ED
:2022600001EFCDAB1830001073010100896745230710F0721710F0721730F0721730F07A75
:2022800010000040730181007F1980007B01FE001F09AF00BB800300BB910100B7850100C8
:2022A0000730F0720730F07A354B3649364AF0B44FF435604BF2E044C3F8EC40C3F8EC00FA
:2022C00040F6420440F6C600C3F8EC40C3F8EC004BF280440420C3F8EC40C3F8EC004BF208
:2022E000A0440220C3F8EC40C3F8EC0040F66300C3F8EC00C3F8C4101A605A6E1505FCD44F
:202300004FF490521E49DA610B685C00C3F38070FAD401231A4A0B60C1F8C400536E190564
:20232000FCD44FF40061194C54661948C2F8EC1048F243431249C2F8E00013600B689B01BC
:20234000FCD44FF4C0520E4B124F134E134DCA614FF4115410224FF4335042F28541013ADD
:20236000C3F8EC70C3F8EC60C3F8EC50C3F8EC40C3F8EC00C3F8EC10F1D1F0BC704700BF1F
:2023800000000C405E1E00410124008008B010000000908004380001E02800346650001078
:2023A00008B50B4BD3F804216FF3DF72C3F80421FFF78AF9FFF796F900B108BD054B4FF67E
:2023C000FF72C3F8D421BDE80840FFF77DBA00BF006F044000000C4018461146019B026849
:2023E0000098FFF70BBD00BF00BA704710B400234268036092F91130002B0EDB5A09144CC0
:202400000121203203F01F0301FA03F344F82230BFF34F8FBFF36F8F42680E4B00211976C1
:2024200092F913308B420DDB5A0909480121203203F01F0301FA03F340F82230BFF34F8FD1
:20244000BFF36F8F034B5DF8044B00201875704700E100E000E07F40374A384B014630B4E7
:202460000020012481F8340082F81644156A146A1B68C4F30264C5F3026203FA02F2A34009
:20248000C5F30275E3402E4CEA40A2424FD92D4C03F5742302F5742203F23F2302F23F22F9
:2024A000A4FB0353A4FB0242920C274C02F5F052A4F8E4209B0C254A43F6B85403FB04F409
:2024C000A2FB0454A4088C6040F6D86403FB04F4A2FB0454A408CC605C00A2FB0454A4083D
:2024E0000C61542403FB04F4A2FB0454A4084C61174C03FB04F4A2FB0454A4088C6144F296
:20250000506403FB04F4A2FB0454A4084C62114C03FB04F4A2FB0454A4080C620E4C04FB07
:2025200003F3A2FB03239B0830BCCB6170474FF4FB7030BC704700BF00E00140580FFE1FBB
:20254000FF083D0083DE1B4300E07F40ABAAAAAA38AF040080DE0F00A0F703000B782DE9A5
:20256000F0410446416053B9314A137613752046FFF772FF08B92F4B2360BDE8F0814A6854
:20258000CB68DFF8ACE08263036400260120E6638EF8180091F911300A7CDFF8A4C0264F2A
:2025A0000CEB03051201D2B285F80023234D47F8234003F1C00255F8228066F3104845F840
:2025C000228055F82220BFF35F8F5A09920002F1604202F5614203F01F0300FA03F3C2F847
:2025E0008031136098238EF8143091F913208B7C94441B01DBB28CF8003302F1C00347F841
:20260000224055F8231066F3104145F8231055F82330BFF35F8F53099B0003F1604302F0FE
:202620001F0203F561439040C3F8800118609EE700E07F404E45504FD00DFE1F0060004069
:2026400000E100E010B4094C5B080363A2424FF00003C0E90A1280F8343003D918465DF881
:20266000044B70475DF8044B00F0A2BAFFFF0F400A4B4FF0000C994280F834C00CD8B1F5A6
:20268000803F35BF21F4FF5121F4FF4121F01F0121F07F0100F088BA16207047FFFF0F409F
:2026A000064B074993F826001A6A51F820300549C2F30262D3400B60704700BF00E001402F
:2026C000F006FE1F580FFE1F704700BF434B4449444A4AF2035070B5A3F8FE03424C434ED5
:2026E0000020A1F80001424993F826006160414922604FF40042C4E902213F4922616161F5
:20270000196A54F82020C1F30261CA4032602021092283F8131483F8A22093F880241AB9AA
:2027200093F88134980754D02C4D95F88034002B44D02A4B002283F8812483F88024274A56
:202740000621002382F8A51082F8323092F83C301907FBD54FF41C510023118582F82A3001
:202760001E4A92F83C309B06FBD51D49022381F81C31224B1362052382F8263092F826307F
:2027800054F82300146AC4F30264E0403060012340244FF4254082F8303082F8523082F8FF
:2027A0002440A2F8FE03A1F80431B1F804319BB2002BFAD10123A1F8003170BD012185F871
:2027C0008014C82000F07EF895F88034012BFBD1AFE74FF47A70FFF777FFB0E700E00140F7
:2027E00000C00140002D3101F006FE1F580FFE1F00127A00001BB700001C4E0E21120121B7
:2028000038B5294C002584F828500121C82000F059F884F8245094F82430002BFBD194F89F
:202820002430214943F0020384F8243091F82430C3F340009B07F9D41B4A81F8220092F806
:20284000223003F0FF00002BF9D192F84030164960F3C71382F8403091F84030DB09FBD126
:2028600091F84200104A63F3C71081F8420092F84230DB09FBD192F844000B4963F3C71050
:2028800082F8440091F84430C3F3C014DB09F9D1012000F09FF8054B012083F8BB44BDE80D
:2028A000384000F067B800BF0040044000E00140704700BF00BEFEE7A0F101000028FBD18E
:2028C000704700BF30B400FB01F1104D104A2868B2FBF0F24FF47A73A1FB03C43CB9BCFB9C
:2028E000F2FC4FEA9C0070B130BCFFF7E5BF9200B1FBF2F1A1FB03134FF0FF30002BF3D13E
:2029000008460028F0D130BC704700BF580FFE1F00CA9A3B0B4B70B5B3F840510A4E0024C8
:20292000ADB225FA04F3DB0704D556F82430E0B203B198470134102CF3D1024BA3F8305102
:2029400070BD00BF00600040900DFE1F10B4074A074C002303F1C001013332F8020F44F846
:202960002100602BF6D15DF8044B7047462D000000600040EFF31081012383F31088124B74
:2029800033F8102092B22AB133F81020013A92B223F8102033F810309BB293B90B4A10B47B
:2029A000B2F8FE330A4C9BB234F8100043F4254323EA0003A2F8FE3381F310885DF8044B33
:2029C000704781F310887047500FFE1F00E00140082E000030B4EFF31081012383F3108821
:2029E0000E4A32F810309BB26BB90D4C0D4DB4F8FE3335F810C09BB243EA0C0343F42543EF
:202A00009BB2A4F8FE3332F8103001339BB222F8103081F3108830BC704700BF500FFE1F6D
:202A200000E00140082E000000BE704708B500F003F8FDF775FDFEE7234B70B54FF470028F
:202A4000224DC3F8882000209D60FDF767FDFFF73DFE0120FDF762FD1D4B29681D481E4DC1
:202A600000244FF425429C801A80A1F580529A601A4AD9604FF480560121A5F82061121A4E
:202A80009980214600F046F81548164A1649174D121A00F047F8164B5B1BA34206DD9E1060
:202AA00055F8043B01349847A642F9DCFFF7F8FDFFF7A6FE0220FDF731FDFFF747FFBDE80F
:202AC00070400020FFF7F4BE00ED00E000000000000D00400807FE1F006000405C0FFE1F10
:202AE0000000FE1FF006FE1F8C2E0000E806FE1FEC06FE1F10B501390244904201D10020C9
:202B000005E0037811F8014FA34201D0181B10BD0130F2E702440346934200D1704703F855
:202B2000011BF9E70A44914200F1FF3300D1704710B511F8014B03F8014F9142F9D110BDFE
:202B40004275696C7420776974682052656E6573617320416476616E63656420466C6578C3
:202B600069626C6520536F667477617265205061636B6167652076657273696F6E20342EDA
:202B8000362E3000342E362E3000000000000604F8B500BFF8BC08BC9E467047F8B500BFB6
:202BA000F8BC08BC9E4670475FF800F05105FE1F5FF800F00D05FE1F30203D3D206D6265B4
:202BC00064746C735F706C6174666F726D5F73657475702826637478290000002E2E2F7326
:202BE00072632F68616C5F656E7472792E63000030203D3D20626F6F745F676F2826727374
:202C0000702900FF6D6375626F6F745F717569636B5F736574757000202C00002407FE1F83
:202C200000000000000000000000000000000000FFDFFFDF040104030402040104010403B5
:202C4000010303040104FFFF7263203D3D2030002E2E2F72612F6D63752D746F6F6C732F48
:202C60004D4355626F6F742F626F6F742F626F6F747574696C2F7372632F6C6F616465721A
:202C80002E6300003000FFFF626F6F745F636F70795F696D61676500626F6F745F706572EB
:202CA000666F726D5F75706461746500636F6E746578745F626F6F745F676F004E554C4CF6
:202CC00020213D202A617265610000002E2E2F72612F6673702F7372632F726D5F6D637594
:202CE000626F6F745F706F72742F666C6173685F6D61702E6300FFFF4653505F535543431D
:202D0000455353203D3D2065727200FF666C6173685F617265615F657261736500FFFFFF54
:202D2000666C6173685F617265615F6F70656E00017F00000080010000000200027F0000F8
:202D40000080030000000200000000000000000000000000000000000000000000000000EE
:202D6000000000000000000000000000000000000000000000000000000000000000000053
:202D8000000000000000000000000000000000000000000000000000000000000000000033
:202DA000000000000000000000000000000000000000000000000000000000000000000013
:202DC0000000000000000000000000000000000000000000000000000000000000000000F3
:202DE0000000000000000000000000000000000000000000000000000000000000000000D3
:202E0000000000000000000001000200080010001000000000000000017A5200027C0E012D
:202E20001B0C0D001000000018000000000000001000000000000000100000000000000016
:202E4000017A5200027C0E011B0C0D003800000018000000000000009E00000000510E1087
:202E600084048503860287015BC7C6C5C40E004C0A420B0A420B0E1084048503860287017B
:202E800051C7C6C5C40E00000000000014494FF42A43B1F884C0A1F88430B1F8840080B217
:202EA0001FFA8CFC60B14FF496420020B1F88430002A9BB208BF4FF4FA70013A002BF5D1B1
:202EC000BCF1010F00D07047064AA2F804C1B2F804319BB2002BFAD10123A2F80031704737
:202EE00000E07F4000C00140114B124A82B0B3214FF4964001901970D2F8803019040DD4C9
:202F000006E0019B013B0193D2F880301B0405D4019B002BF5D1142002B07047054B1B7CDC
:202F200013F0100F40F2F51008BF002002B0704700007E4000E07F40114B124A82B0502130
:202F40004FF4964001901970D2F8803019040DD406E0019B013B0193D2F880301B0405D402
:202F6000019B002BF5D1142002B07047054B1B7C13F0100F40F2F51008BF002002B0704797
:202F800000007E4000E07F4070B543681A7882B00446F2B193F9113049485909012220311F
:202FA00003F01F0302FA03F340F82130BFF34F8FBFF36F8F636893F91330590903F01F0330
:202FC0009A4001F1200340F82320BFF34F8FBFF36F8F3C4BB3F884309BB2D3B1FFF784FF17
:202FE0000546FFF7A9FF06463DB1FFF74FFF0023284684F8343002B070BDFFF747FF002EB0
:2030000014BF354605460023284684F8343002B070BD626811784FF496400190B1B9294AED
:203020004AF68023A2F88430B2F884309BB2802B08D1D3E7019B013B0193B2F884309BB25F
:20304000802BCBD0019B002BF4D1C7E792F911201D4902F1C00051F8205063F3104541F87E
:20306000205051F82000BFF35F8F02F01F055209920002F1604202F56142012000FA05F590
:20308000C2F880511560626892F9132002F1C00551F8256063F3104641F8256051F825301A
:2030A000BFF35F8F53099B0003F1604303F5614302F01F0200FA02F2C3F880211A60AEE7DA
:2030C00000E100E000E07F400060004030B4124C836A2363114D0B44016B4FF0200C85F83A
:2030E00000C001394FF0D00C85F800C083620163104622B1D4F880301A0403D5002030BC8E
:20310000704730B1D4F880301B0400F1FF30F8D5F4E7142030BC704700E07F4000007E4080
:20312000F0B54E0883B0C1F34701002A4CD14368344F93F911305C092034012503F01F032F
:2031400005FA03F347F82430BFF34F8FBFF36F8F2D4CC56A2D4B2563E8241C701970002EB0
:203160004DD0D0F810E0856A284F274C4FF0000C2B88CDF804E03B8004E0019B591E0191B6
:20318000002B39D0D4F880305B05F6D4C36A0233C362036B0CF1010C0235013BB445856203
:2031A0000363E5D3194BD0211970C2B9436893F9113014495809012203F01F0302FA03F338
:2031C00041F82030002018E00F4CC56A0F4B2563E8241C701970002EC3D1D02119700A4932
:2031E000D1F880301804EDD4D1F880301B0402F1FF32E7D4002AF7D1142003B0F0BDD0228A
:203200001A70D3E700E100E000E07F4000007E4010B5134B1C7CE40607D4D3F880301942F6
:203220000FD1B0B90024204610BDD3F88040640403D5002493F810C01C74D3F8803019423E
:2032400009D030B9002AEDD01446FFF74DFE204610BD0446F9E70028FBD140F2F514F4E7C3
:2032600000E07F4030B4164A8569164C164B82B04020019511630822207003F110012270CD
:2032800033F8022F22808B42FAD1D0230C4A2370D2F8803019040ED406E0019B013B0193F1
:2032A000D2F880301B0406D4019B002BF5D1142002B030BC7047002002B030BC704700BF51
:2032C00000E07F4000007E40D606FE1F084B42EAC0326FEA41514FF0FF3042F4F0426FEA0D
:2032E0005151C3E902001860DA809980704700BFD806FE1F10B4436824491A7883B04FF43E
:2033000096444FF0000C0194A1F800C1EAB193F911301F4C59090122203103F01F0302FADF
:2033200003F344F82130BFF34F8FBFF36F8F436893F913305909203103F01F039A4044F872
:203340002120BFF34F8FBFF36F8F124A4AF60123A2F88430B2F884309BB2012B08D110E03E
:20336000019B013B0193B2F884309BB2012B08D0019B002BF4D14FF4FA7003B05DF8044BA2
:203380007047002003B05DF8044B704700C0014000E100E000E07F4038B50546FFF7AAFF10
:2033A000A0B92B6B0BB916E088B9AA6880212846FFF7B6FE18224FF4A041FFF729FF2B6B46
:2033C0000446002BF0D1FFF761FD14B938BDFFF75DFD204638BDBDE8384057E5F8B581620D
:2033E00002630446FFF786FF10BB154A236B0121A2F8E0100BB3D4E9076700E0C8B9A36AE8
:20340000B3F5803F324632BF4FF400513A464FF400412046FFF75AFE19224FF4C041FFF71B
:20342000F7FE236B0546002BE8D1FFF72FFD15B9F8BDFFF72BFD2846F8BDBDE8F84025E50D
:2034400000E07F402DE9F041114B0546D3F8DC600F469046FFF74EFF0446A8B9F60F4FEA81
:203460005832790B3046FFF731FF4AF260112846FFF7F8FE21461822FFF7CAFE0446FFF7FC
:2034800005FD002C08BF04462046BDE8F08100BF00E07F40F8B507460D461646FFF72AFF4B
:2034A000044620BB134B36B145F4CC41A3F8E810BDE8F840EAE4D3F8DC10D3F8DC20ED4370
:2034C000C2F30A42C1F30A0105F00100FFF7FEFE4AF260113846FFF7C5FE21461822FFF7C9
:2034E00097FE0446FFF7D2FC002C08BF04462046F8BD00BF00E07F40F8B507460C461646CB
:20350000FFF7F8FE20BB144D21462B4604F11000BEB10A6843F8042B04318142F8D19EB943
:203520004AF250113846FFF79DFE18220021FFF76FFE0546FFF7AAFC002D08BF054628468D
:20354000F8BD4FF0FF32E5E7EB891E43EE81E7E705462846F8BD00BFD806FE1F010000003F
:1C356000FFFFFFFFFFFF0000000000000000000000000000A50400007D0400002B
:020000040001F9
:208000003DB8F396000000000002000044B9010000000000000200000000000000000000E0
:20802000FFFFFFFFFFFFFFFFFFFFFFFFFFFFFFFFFFFFFFFFFFFFFFFFFFFFFFFFFFFFFFFF60
:20804000FFFFFFFFFFFFFFFFFFFFFFFFFFFFFFFFFFFFFFFFFFFFFFFFFFFFFFFFFFFFFFFF40
:20806000FFFFFFFFFFFFFFFFFFFFFFFFFFFFFFFFFFFFFFFFFFFFFFFFFFFFFFFFFFFFFFFF20
:20808000FFFFFFFFFFFFFFFFFFFFFFFFFFFFFFFFFFFFFFFFFFFFFFFFFFFFFFFFFFFFFFFF00
:2080A000FFFFFFFFFFFFFFFFFFFFFFFFFFFFFFFFFFFFFFFFFFFFFFFFFFFFFFFFFFFFFFFFE0
:2080C000FFFFFFFFFFFFFFFFFFFFFFFFFFFFFFFFFFFFFFFFFFFFFFFFFFFFFFFFFFFFFFFFC0
:2080E000FFFFFFFFFFFFFFFFFFFFFFFFFFFFFFFFFFFFFFFFFFFFFFFFFFFFFFFFFFFFFFFFA0
:20810000FFFFFFFFFFFFFFFFFFFFFFFFFFFFFFFFFFFFFFFFFFFFFFFFFFFFFFFFFFFFFFFF7F
:20812000FFFFFFFFFFFFFFFFFFFFFFFFFFFFFFFFFFFFFFFFFFFFFFFFFFFFFFFFFFFFFFFF5F
:20814000FFFFFFFFFFFFFFFFFFFFFFFFFFFFFFFFFFFFFFFFFFFFFFFFFFFFFFFFFFFFFFFF3F
:20816000FFFFFFFFFFFFFFFFFFFFFFFFFFFFFFFFFFFFFFFFFFFFFFFFFFFFFFFFFFFFFFFF1F
:20818000FFFFFFFFFFFFFFFFFFFFFFFFFFFFFFFFFFFFFFFFFFFFFFFFFFFFFFFFFFFFFFFFFF
:2081A000FFFFFFFFFFFFFFFFFFFFFFFFFFFFFFFFFFFFFFFFFFFFFFFFFFFFFFFFFFFFFFFFDF
:2081C000FFFFFFFFFFFFFFFFFFFFFFFFFFFFFFFFFFFFFFFFFFFFFFFFFFFFFFFFFFFFFFFFBF
:2081E000FFFFFFFFFFFFFFFFFFFFFFFFFFFFFFFFFFFFFFFFFFFFFFFFFFFFFFFFFFFFFFFF9F
:20820000206CFF1F01840200D58102001184020011840200118402001184020011840200E2
:20822000000000000000000000000000512C020011840200000000008D2C0200ED2C020052
:2082400001410200773F020057420200AF420200475C0200475C0200374A02006B4A020010
:20826000337D0200337D0200475C020001410200773F020057420200AF4202009166020072
:20828000F565020001410200773F020057420200AF420200000000000000000000000000F8
:2082A0000000000000000000000000000000000000000000000000000000000000000000BE
:2082C00000000000000000000000000000000000000000000000000000000000000000009E
:2082E00000000000000000000000000000000000000000000000000000000000000000007E
:2083000000000000000000000000000000000000000000000000000000000000000000005D
:208700000348044B834202D0034B03B118477047040CFE1F040CFE1F000000000548064B18
:208720001B1AD90F01EBA301491002D0034B03B118477047040CFE1F040CFE1F00000000EF
:2087400010B5064C237843B9FFF7DAFF044B13B10448AFF300800123237010BD200CFE1F4E
:20876000000000003C30030008B5054B1BB105490548AFF30080BDE80840FFF7CFBF00BFC4
:2087800000000000240CFE1F3C30030080B584B000AF78607B68FB6007F10B03184605F096
:2087A0002FF90346002B12D10A2011F0B5F80E4B93F8C73DDBB20133DAB20B4B83F8C72D68
:2087C000FB680A3BFB60FB68002BE5DC00E000BFFB68002B02DC4FF0FF3300E0FB7A184618
:2087E0001037BD4680BD00BF201AFF1F80B582B000AF0346FB71FB79184605F085F800BF0D
:208800000837BD4680BD80B584B000AFF860B9601346FB71FB791A46B968F86804F0F8F951
:20882000034618461037BD4680BD80B500AF05F00DF900BF80BD80B485B000AF78603960A6
:208840000023FB6022E07B685A1C7A6093F900301B02FA685340FB600823FB72FB6803F44A
:208860000043002B07D0FB685B0083F4815383F00103FB6002E0FB685B00FB60FB7A013B2C
:20888000DBB2FB7297F90B30002BE7D13B68013B3B603B68002BD6DAFB6818461437BD4629
:2088A0005DF8047B704780B588B000AFF860B9607A60FB68002B18D07968B868FFF7BBFF9F
:2088C00003463B837B68BA6813441B781B029BB27A680132B9680A4412781344FB823A8B91
:2088E000FB8A9A421DD101231CE00023FB760023FB6109E0FB69BA6813441A78FB7E1344CE
:20890000FB76FB690133FB61FA697B689A42F1DB7B68BA6813441B78FA7E9A4201D10123CB
:2089200000E0002318462037BD4680BD80B500AFFFF77BFF00BF80BD90B5ADF23C4D00AFD3
:2089400007F58763A3F2344318600023C7F82C34432387F82B34012387F82A340023C7F844
:2089600020341923C7F81834FFF75FFF0023C7F81C347BE097F82B34002B04D097F92B349F
:208980001846FFF733FF4FF47A70FFF7FFFEC7F81404D7F81434002B63DBD7F81434013B87
:2089A000172B5BD801A252F823F000BF0D8A0100158A01005D8A01001F8A01005D8A0100D1
:2089C0005D8A01005D8A01005D8A01005D8A01005D8A01005D8A01005D8A01005D8A010057
:2089E0005D8A01005D8A01005D8A01005D8A01005D8A01005D8A01005D8A01005D8A010037
:208A00005D8A01005D8A0100398A01008023C7F8303446E04FF48063C7F8303441E0FFF776
:208A200085FF0620FFF7E2FE002200210020FFF7EAFED7F8203407E14FF47A70FFF7A6FEA3
:208A4000C7F81404D7F81434182B09D1FFF76EFF0620FFF7CBFE4FF0FF33F5E000BF00E0DE
:208A600000BFD7F81C340133C7F81C34D7F81C340F2B7FF77FAF97F82B34432B03D1152370
:208A800087F82B34DFE0FFF751FF1820FFF7AEFE1820FFF7ABFE1820FFF7A8FE6FF001030B
:208AA000D2E097F82B34432B02D10123C7F82C34002387F82B3407F10803C7F83434D7F898
:208AC00034345A1CC7F83424D7F81424D2B21A700023C7F8243415E04FF47A70FFF756FEE6
:208AE0000346DBB2C7F81434D7F834345A1CC7F83424D7F81424D2B21A70D7F82434013365
:208B0000C7F82434D7F82C34002B14BF01230023DBB21A46D7F8303413440233D7F8242407
:208B20009A42D9DD07F58763A3F586635A7807F58763A3F586639B78DB43DBB29A427CD11C
:208B400007F58763A3F586635B7897F82A249A420AD007F58763A3F586635B781A4697F81F
:208B60002A34013B9A4268D107F108030333D7F830241946D7F82C04FFF795FE0346002B8F
:208B80005BD007F58763A3F586635B7897F82A249A4237D107F58763A3F234431A68D7F86C
:208BA0002034D41AD7F830349C4201DDD7F83044002C1FDD214607F10803033301221846F8
:208BC000FFF721FE0346C7F81034D7F81034A3420BD01820FFF70AFE1820FFF707FE1820C0
:208BE000FFF704FE6FF002032EE0D7F820342344C7F8203497F82A34013387F82A341A2333
:208C0000C7F81834D7F81834013BC7F81834D7F81834002B0DDCFFF789FE1820FFF7E6FD2A
:208C20001820FFF7E3FD1820FFF7E0FD6FF003030AE00620FFF7DAFD05E000BFFFF776FECB
:208C40001520FFF7D3FD91E6184607F23C47BD4690BD00BF80B582B000AF0649042004F03C
:208C6000C3FC0548FFF768FE78607B6818460837BD4680BDE8000300404B4C0080B485B0C9
:208C800000AF786039607B68002B02D03B68002B01D101235EE07A683B689A420DD1002370
:208CA00058E07B681B78002B01D1002352E07B6801337B603B6801333B607B681B78FB736C
:208CC000FB7B0133264A134493F90030DBB203F00303012B03D1FB7B03F1200200E0FA7B00
:208CE0003B681B78BB73BB7B01331D490B4493F90030DBB203F00303012B02D1BB7B203327
:208D000000E0BB7B9A42CCD07B681B787B737B7B0133134A134493F90030DBB203F0030341
:208D2000012B03D17B7B03F1200200E07A7B3B681B783B733B7B013309490B4493F9003027
:208D4000DBB203F00303012B02D13B7B203300E03B7BD31A18461437BD465DF8047B7047CB
:208D6000702B030080B584B000AF786039600023FB600023BB607B68002B01D1002315E018
:208D8000786814F04BFF03460133FB603B681B68F8689847B860BB68002B01D1002305E028
:208DA000FA687968B86814F02BFFBB6818461037BD4680BD80B483B000AF78607B68002B1E
:208DC00009D11A4B1A4A1A60184B1A4A5A60174B194A9A6025E0154B154A1A607B681B6892
:208DE000002B03D07B681B68104A13600F4B114A5A607B685B68002B03D07B685B680B4A34
:208E000053600A4B00229A60084B1B68084A934207D1064B5B68074A934202D1034B064AAE
:208E20009A600C37BD465DF8047B70477009FE1FD5BE0200E5BE020051C0020080B584B01B
:208E400000AF78607B681B6828209847F860FB68002B04D028220021F86814F027F8FB68F3
:208E600018461037BD4680BD80B584B000AF78600023FB6037E07B681B68FB607B68DB68A1
:208E800003F48073002B08D17B689B68002B04D07B689B681846FFF7E7FF7B68DB6803F4C2
:208EA0008073002B09D17B681B69002B05D0124B5B687A681269104698477B68DB6803F484
:208EC0000073002B09D17B681B6A002B05D00A4B5B687A68126A10469847074B5B68786812
:208EE0009847FB687B607B68002BC4D100BF00BF1037BD4680BD00BF7009FE1F80B400AF75
:208F00002E231846BD465DF8047B7047FFFFFFFF80B598B000AF786039604FF000024FF0FB
:208F20000003C7E914230023BB64FFF7E7FF034687F84F300023FB653B68002B03D03B681B
:208F40001B68002B01D10023A0E00023FB653DE03B681A683B689968FB6D0B4413441B78E4
:208F6000452B17DC2B2B40DB2B3B01229A404C4B1340002B14BF01230023DBB2002B0BD1F7
:208F800002F00803002B14BF01230023DBB2002B11D12AE0652B28D13B681A683B68996899
:208FA000FB6D0B441344197807F10802FB6D13440A461A7007E007F10802FB6D134497F840
:208FC0004F201A7000BFFB6D0133FB65FB6D3E2B0DD83B68002B0AD03B689A68FB6D1A4414
:208FE0003B685B689A42B3D301E000BF00E000BF07F10802FB6D134400221A7007F14802BB
:2090000007F108031146184613F07AFE87ED140BBA6C07F108039A4201D1002336E0796899
:20902000D7E91423C1E906231BA3D3E90023D7E9140112F0FDFC0346002B04D07B686FF06F
:2090400000425A6115E04FF00002164BD7E9140112F0E4FC0346002B04D07B684FF0004219
:209060005A6106E0D7E9140112F00CFD02467B685A617B680822DA603B689B68B96C07F17F
:2090800008028A1A1A443B689A60012318466037BD4680BDAFF300800000C0FFFFFFDF41CF
:2090A000E57F00040000E0C180B584B000AF786039600023FB600023BB607B68002B03D081
:2090C0007B681B68002B01D1002383E07B685B68002B07D07B689A687B685B689A4201D3C4
:2090E000002377E03B68002B01DA002372E07B689A683B68134401333B607B685B683A68E2
:209100009A4205D87B681A687B689B68134461E07B681B69002B01D000235BE03B68B3F1AB
:20912000804F08D33B68002B03DB6FF00043BB6004E000234EE03B685B00BB607B681B6A66
:20914000002B18D07B681B6A7A681268B96810469847F860FB68002B32D17B68DB697A68F0
:209160001268104698477B6800225A607B6800221A6000232EE07B689B69B8689847F86093
:20918000FB68002B0DD17B68DB697A681268104698477B6800225A607B6800221A6000234A
:2091A00018E07B6819687B689B6801331A46F86814F026FD7B68DB697A681268104698479A
:2091C0007B68BA685A607B68FA681A607B689B68FA68134418461037BD4680BD90B585B013
:2091E00000AF78600023FB607B68002B13D07B681B68002B0FD07B681A687B689B68134467
:20920000FB607B689C68F86814F008FD0346E2187B689A6000E000BF1437BD4690BDFFFF4B
:209220002DE9F04387B000AF87ED020B87ED001BB868FE6826F000413A687E6826F0004331
:2092400012F000FC0346002B04D0BC68FB6823F0004503E03C687B6823F00045C7E904452E
:20926000D7E90023D7E9020111F0A4FF02460B46904623F000494FF000020C4BD7E904017C
:2092800012F050F902460B4601210C464046494612F0C4FB0346002B01D100231C46E3B240
:2092A00018461C37BD46BDE8F08300BF0000B03CF0B593B000AF786039600023FB637B68CB
:2092C000D3E90623C7E90C2300237B6400233B6400237B6107F1180300221A605A609A60A4
:2092E000DA601A619A82FFF709FE034687F82F304FF000024FF00003C7E902233B68002B53
:2093000001D10023B4E0D7E90C23D7E90C0112F0A3FB0346002B21D13C6B7B6B23F000451D
:2093200001231E464FF0FF32534B2046294612F093FB0346002B0BD14FF0FF324E4B204673
:20934000294612F06BFB0346002B01D100231E46F3B283F00103DBB2002B07D007F11403AF
:209360004649184613F00CFD78643FE07B685B69184612F06DF802460B46D7E90C0112F025
:2093800039FB0346002B09D07B685A6907F114033B49184613F0F4FC786427E007F11400D3
:2093A000D7E90C23374913F0EBFC786407F1080207F114033449184613F002FD0346012B15
:2093C0000CD197ED027B97ED0C1BB0EE470AF0EE670AFFF725FF0346002B07D107F1140054
:2093E000D7E90C23294913F0CBFC78647B6C002B02DB7B6C192B01DD002339E07B6C013317
:2094000019463868FFF750FEF863FB6B002B01D100232DE000233B641AE007F114023B6CAA
:2094200013441B7897F82F209A4205D1FA6B3B6C13442E221A7008E0FA6B3B6C134407F132
:2094400014013A6C0A4412781A703B6C01333B647B6C3A6C9A42E0D3FA6B3B6C13440022D4
:209460001A703B689A687B6C1A443B689A60012318464C37BD46F0BDFFFFEF7F1C0103009A
:209480002401030028010300300103003401030080B485B000AF78600023FB600023BB6060
:2094A0000023BB604CE07A68BB6813441B782F2B0FD97A68BB6813441B78392B09D87A68FB
:2094C000BB6813441B781A46FB681344303BFB602DE07A68BB6813441B78402B0FD97A686E
:2094E000BB6813441B78462B09D87A68BB6813441B781A46FB681344373BFB6017E07A685E
:20950000BB6813441B78602B0FD97A68BB6813441B78662B09D87A68BB6813441B781A461B
:20952000FB681344573BFB6001E000230CE0BB68022B02D8FB681B01FB60BB680133BB601E
:20954000BB68032BAFD9FB6818461437BD465DF8047B704780B58AB000AFF860B9607A602F
:2095600000237B620023FB61FB68BB61002387F82330002387F82230002387F821300023EE
:2095800087F82030BA68BB69D31A052B40F3B780BB6902331846FFF77BFFF861FB69B3F5A3
:2095A0005C4F04D3FB69B3F5604FC0F0AA80FB69B3F5584F37D3FB69B3F55C4F33D2BB69F7
:2095C00006337B6100233B610C2387F82130BA687B69D31A052B40F396807B691B785C2B4E
:2095E00040F093807B6901331B78752B40F08D807B6902331846FFF74BFF38613B69B3F504
:209600005C4FC0F084803B69B3F5604F7FD2FB699A02434B13403A69C2F30902134303F50D
:2096200080337B6204E0062387F82130FB697B627B6A7F2B03D8012387F823301FE07B6A38
:20964000B3F5006F06D2022387F82330C02387F8203014E07B6AB3F5803F06D2032387F8B5
:209660002330E02387F8203009E07B6AB3F5881F4FD2042387F82330F02387F8203097F81D
:209680002330013B87F8223015E07B6ADBB203F03F03DAB27B68196897F822300B4462F05C
:2096A0007F02D2B21A707B6A9B097B6297F82230013B87F8223097F82230002BE5D197F876
:2096C0002330012B09D97B6AD9B27B681B6897F820200A43D2B21A7007E07B6ADAB27B68EE
:2096E0001B6802F07F02D2B21A707B681A6897F823301A447B681A6097F821300BE000BFDA
:2097000008E000BF06E000BF04E000BF02E000BF00E000BF002318462837BD4680BD00BF3B
:2097200000FC0F0080B58AB000AF786039603B681A683B689B68013313447B623B681A6837
:209740003B689B68013313443B620023FB600023FB613B681A683B689B6813441B78222B3C
:2097600040F0038100233B610023BB6117E03B6A1B785C2B10D13B6A5A1C3B681B68D31A72
:209780001A463B685B689A4280F0F180BB690133BB613B6A01333B623B6A01333B623B6843
:2097A0001B683A6AD31A1A463B685B689A4203D23B6A1B78222BDAD13B681B683A6AD31A37
:2097C0001A463B685B689A4280F0D3803B6A1B78222B40F0CE803B681A683B689B681344FF
:2097E0003A6AD31A1A46BB69D31A3B613B681B693A69013210469847F861FB69002B00F0C1
:20980000BA80FB69FB6094E07B6A1B785C2B08D07A6A531C7B62FB68591CF96012781A708F
:2098200087E00223FB753A6A7B6AD31A002B40F3A4807B6A01331B78752B00F3A0805C2B4E
:2098400004DA222B5CD02F2B5AD098E05C3B192B00F2958001A252F823F000BF0199010079
:209860007F9901007F9901007F9901007F9901007F990100C59801007F9901007F990100DB
:209880007F990100D19801007F9901007F9901007F9901007F9901007F9901007F990100AF
:2098A0007F990100DD9801007F9901007F9901007F990100E99801007F990100F5980100A5
:2098C00011990100FB685A1CFA6008221A702CE0FB685A1CFA600C221A7026E0FB685A1C20
:2098E000FA600A221A7020E0FB685A1CFA600D221A701AE0FB685A1CFA6009221A7014E096
:209900007B6A5A1CFB68591CF96012781A700CE007F10C031A46396A786AFFF71BFE034677
:20992000FB75FB7D002B2CD000BFFB7D7A6A13447B627A6A3B6A9A42FFF466AFFB680022D7
:209940001A707B681022DA607B68FA691A613B681B683A6AD31A1A463B689A603B689B6813
:209960005A1C3B689A6001231EE000BF0AE000BF08E000BF06E000BF04E000BF02E000BFBA
:2099800000E000BFFB69002B03D03B685B69F86998477B6A002B06D03B681B687A6AD31A42
:2099A0001A463B689A60002318462837BD4680BD80B588B000AF786039600023FB6100235B
:2099C0003B610023BB610023FB6000237B613B68002B01D1002310E17B68002B11D1032167
:2099E0003868FFF761FB38613B69002B01D1002303E13B69834A1188927819809A70012359
:209A0000FBE07B68FB6124E0FB691B78222B0FDC082B13DB083B7C4A22FA03F303F00103C6
:209A2000002B14BF01230023DBB2002B02D105E05C2B03D17B6901337B6107E0FB691B7844
:209A40001F2B02D87B6905337B6100BFFB690133FB61FB691B78002BD6D1FA697B68D31A3B
:209A60001A467B691344FB60FB68033319463868FFF71AFB38613B69002B01D10023BCE054
:209A80007B69002B17D13B6922221A703B690133FA687968184614F0B3F8FB6801333A69FB
:209AA000134422221A70FB6802333A69134400221A700123A1E03B6922221A703B69013354
:209AC000BB617B68FB6186E0FB691B781F2B0CD9FB691B78222B08D0FB691B785C2B04D031
:209AE000FB691A78BB691A706FE0BB695A1CBA615C221A70FB691B78222B3DDC082B59DBF2
:209B0000083B1A2B56D801A252F823F08D9B0100AD9B01009D9B0100B59B0100959B010062
:209B2000A59B0100B59B0100B59B0100B59B0100B59B0100B59B0100B59B0100B59B0100AD
:209B4000B59B0100B59B0100B59B0100B59B0100B59B0100B59B0100B59B0100B59B01007D
:209B6000B59B0100B59B0100B59B0100B59B0100B59B0100859B01005C2B1BD1BB695C221A
:209B80001A7022E0BB6922221A701EE0BB6962221A701AE0BB6966221A7016E0BB696E223D
:209BA0001A7012E0BB6972221A700EE0BB6974221A700AE0FB691B781A461449B86913F0F3
:209BC000DFF8BB690433BB6100BFFB690133FB61BB690133BB61FB691B78002B7FF474AF58
:209BE000FB6801333A69134422221A70FB6802333A69134400221A70012318462037BD46EC
:209C000080BD00BF3C010300370000044001030080B582B000AF786039607B681B693968FA
:209C20001846FFF7C5FE034618460837BD4680BD80B483B000AF78607B68002B03D07B6835
:209C40001B68002B01D100232CE07B68002B05D07B689A687B685B689A4206D37B6821E04E
:209C60007B689B685A1C7B689A607B68002B0DD07B689A687B685B689A4207D27B681A681B
:209C80007B689B6813441B78202BE9D97B689A687B685B689A4204D17B689B685A1E7B686A
:209CA0009A607B6818460C37BD465DF8047B704780B582B000AF78607B68002B07D07B68E2
:209CC0001B68002B03D07B689B68002B01D000231CE07B68002B18D07B689B681A1D7B680C
:209CE0005B689A4211D27B681A687B689B68134403220849184613F0F0F80346002B04D138
:209D00007B689B68DA1C7B689A607B6818460837BD4680BD4801030080B586B000AFF8600C
:209D2000B9607A60FB68002B01D100230CE0F86813F074FF034601337B617B68BA687969AB
:209D4000F86800F005F8034618461837BD4680BD80B58EB000AFF860B9607A603B6007F180
:209D6000180300221A605A609A60DA601A615A619A6100237B63414B00221A603F4B002238
:209D80005A60FB68002B42D0BB68002B3FD0FB68BB61BB68FB6100233B62394A07F12803A8
:209DA00007CA83E807003648FFF748F878637B6B002B2ED007F118031846FFF779FF03469A
:209DC0001846FFF735FF03461946786B00F0FCF80346002B1FD03B68002B0ED007F118036A
:209DE0001846FFF725FF3A6AFB699A4215D2BA693B6A13441B78002B0FD17B68002B04D081
:209E0000BA693B6A1A447B681A607B6B31E000BF04E000BF02E000BF00E000BF7B6B002B15
:209E200002D0786BFFF720F8FB68002B20D0FB683B6100237B613A6AFB699A4202D23B6A86
:209E40007B6105E0FB69002B02D0FB69013B7B617B68002B04D03A697B691A447B681A6040
:209E6000064B1A4607F1100393E8030082E80300002318463837BD4680BD00BF3C0CFE1FE7
:209E80007009FE1F80B582B000AF7860002200217868FFF741FF034618460837BD4680BDBF
:209EA00080B58EB000AFF860B9607A6000237B6307F1100324220021184612F0F7FF7B6889
:209EC0001B68384A12681046984703463B61354B1B687B61BB687B627A6807F1280307CA34
:209EE00083E807003B69002B40D007F110031946F86800F055F90346002B39D007F1100381
:209F00001846FFF76BF97B689B68002B0DD07B689B683869BA6901321146984778637B6BC7
:209F2000002B27D000233B611EE07B681B68BA6901321046984778637B6B002B1CD03969D7
:209F4000BB695A1C7B69934228BF13461A46786B13F056FEBB697A6B134400221A707B68E5
:209F60005B683A69104698477B6B16E000BF04E000BF02E000BF00E000BF3B69002B04D025
:209F80007B685B683A69104698477B6B002B03D07B685B68786B9847002318463837BD4604
:209FA00080BD00BF5C01030080B582B000AF7860044A00217868FFF773FF034618460837BA
:209FC000BD4680BD7009FE1F80B582B000AF786039603B68002B03D03B681B68002B01D160
:209FE0000023D2E03B68002B1DD03B689B681A1D3B685B689A4216D83B681A683B689B68F9
:20A00000134404226349184612F067FF0346002B09D17B680422DA603B689B681A1D3B6840
:20A020009A600123B1E03B68002B1DD03B689B685A1D3B685B689A4216D83B681A683B68A1
:20A040009B68134405225449184612F046FF0346002B09D17B680122DA603B689B685A1D92
:20A060003B689A60012390E03B68002B20D03B689B681A1D3B685B689A4219D83B681A68BC
:20A080003B689B68134404224449184612F025FF0346002B0CD17B680222DA607B680122F4
:20A0A0005A613B689B681A1D3B689A6001236CE03B68002B13D03B689A683B685B689A4263
:20A0C0000DD23B681A683B689B6813441B78222B05D139687868FFF725FB034655E03B6811
:20A0E000002B23D03B689A683B685B689A421DD23B681A683B689B6813441B782D2B0FD080
:20A100003B681A683B689B6813441B782F2B0DD93B681A683B689B6813441B78392B05D854
:20A1200039687868FEF7F4FE03462EE03B68002B13D03B689A683B685B689A420DD23B6846
:20A140001A683B689B6813441B785B2B05D13968786800F009F9034617E03B68002B13D02D
:20A160003B689A683B685B689A420DD23B681A683B689B6813441B787B2B05D13968786867
:20A1800000F03CFA034600E0002318460837BD4680BD00BF1C0103004C01030054010300E9
:20A1A00080B584B000AF786039600023FB607B68002B02D03B68002B01D10023C9E07B6869
:20A1C000DB68DBB2802B00F08E80802B00F3C080202B49DC002B40F3BB80013B1F2B00F2A7
:20A1E000B78001A252F823F093A20100B7A2010051A301006FA2010051A3010051A30100A7
:20A2000051A30100DBA2010051A3010051A3010051A3010051A3010051A3010051A301000D
:20A2200051A301002DA3010051A3010051A3010051A3010051A3010051A3010051A301009A
:20A2400051A3010051A3010051A3010051A3010051A3010051A3010051A3010051A3010056
:20A2600051A3010039A30100402B6BD070E005213868FEF719FFF860FB68002B01D1002368
:20A2800067E0FB68354A1068186012791A7101235FE006213868FEF707FFF860FB68002B84
:20A2A00001D1002355E0FB682D4A1068186092889A8001234DE005213868FEF7F5FEF8601F
:20A2C000FB68002B01D1002343E0FB68254A1068186012791A7101233BE039687868FEF74B
:20A2E000E7FF034635E00023BB607B681B69002B01D100232DE07B681B69184613F08EFCF6
:20A3000003460133BB60B9683868FEF7CDFEF860FB68002B01D100231BE07B681B69BA68C5
:20A320001946F86813F06CFC012312E039687868FFF76EFC03460CE03968786800F0D8F886
:20A34000034606E03968786800F057FA034600E0002318461037BD4680BD00BF1C010300FC
:20A360004C0103005401030080B586B000AF7860396000237B6100233B613B68DB68B3F55E
:20A380007A7F01D30023AFE03B68DB685A1C3B68DA603B681A683B689B6813441B785B2BCA
:20A3A00040F094803B689B685A1C3B689A603868FFF73EFC3B68002B0DD03B689A683B68DD
:20A3C0005B689A4207D23B681A683B689B6813441B785D2B61D03B68002B05D03B689A684F
:20A3E0003B685B689A4205D33B689B685A1E3B689A6072E03B689B685A1E3B689A603B68D8
:20A4000010331846FEF71AFDF860FB68002B5FD07B69002B04D1FB687B617B693B6107E0F0
:20A420003B69FA681A60FB683A695A60FB683B613B689B685A1C3B689A603868FFF7F8FB9B
:20A4400039683869FFF7C0FD0346002B42D03868FFF7EEFB3B68002B0DD03B689A683B680F
:20A460005B689A4207D23B681A683B689B6813441B782C2BC3D03B68002B2DD03B689A6855
:20A480003B685B689A4227D23B681A683B689B6813441B785D2B1FD100E000BF3B68DB68CF
:20A4A0005A1E3B68DA607B69002B02D07B693A695A607B682022DA607B687A699A603B6863
:20A4C0009B685A1C3B689A6001230DE000BF04E000BF02E000BF00E000BF7B69002B02D0D2
:20A4E0007869FEF7C1FC002318461837BD4680BD80B586B000AF7860396000237B6100230C
:20A50000FB607B689B683B613B68002B01D1002370E001213868FEF7C7FD78617B69002BE8
:20A5200001D1002366E07B695B221A703B689B685A1C3B689A603B68DB685A1C3B68DA6003
:20A540003DE039683869FFF72BFE0346002B01D100234FE03868FEF741FE3B691B68002BBF
:20A560002AD03B685B69002B01D0022300E00123FB60FB68013319463868FEF795FD786104
:20A580007B69002B01D1002334E07B695A1C7A612C221A703B685B69002B04D07B695A1CD6
:20A5A0007A6120221A707B6900221A703B689A68FB681A443B689A603B691B683B613B69FA
:20A5C000002BBED102213868FEF76EFD78617B69002B01D100230DE07B695A1C7A615D2220
:20A5E0001A707B6900221A703B68DB685A1E3B68DA60012318461837BD4680BD80B586B08A
:20A6000000AF7860396000237B6100233B613B68DB68B3F57A7F01D30023EAE03B68DB682E
:20A620005A1C3B68DA603B68002B00F0D0803B689A683B685B689A4280F0C9803B681A68F4
:20A640003B689B6813441B787B2B40F0C0803B689B685A1C3B689A603868FFF7E9FA3B687F
:20A66000002B0ED03B689A683B685B689A4208D23B681A683B689B6813441B787D2B00F0C3
:20A680008D803B68002B05D03B689A683B685B689A4205D33B689B685A1E3B689A60A1E00F
:20A6A0003B689B685A1E3B689A603B6810331846FEF7C4FBF860FB68002B00F08A807B6923
:20A6C000002B04D1FB687B617B693B6107E03B69FA681A60FB683A695A60FB683B613B68F2
:20A6E0009B685A1C3B689A603868FFF7A1FA39683869FFF717F80346002B6CD03868FFF786
:20A7000097FA3B691A693B691A623B6900221A613B68002B61D03B689A683B685B689A423A
:20A720005BD23B681A683B689B6813441B783A2B53D13B689B685A1C3B689A603868FFF75F
:20A7400077FA39683869FFF73FFC0346002B46D03868FFF76DFA3B68002B0DD03B689A683E
:20A760003B685B689A4207D23B681A683B689B6813441B782C2B98D03B68002B31D03B68D8
:20A780009A683B685B689A422BD23B681A683B689B6813441B787D2B23D100E000BF3B68E5
:20A7A000DB685A1E3B68DA607B69002B02D07B693A695A607B684022DA607B687A699A60A0
:20A7C0003B689B685A1C3B689A60012311E000BF08E000BF06E000BF04E000BF02E000BF5C
:20A7E00000E000BF7B69002B02D07869FEF73CFB002318461837BD4680BD80B588B000AFA0
:20A80000786039600023FB610023FB607B689B68BB613B68002B01D1002308E13B685B69B5
:20A82000002B01D0022300E00123FB60FB68013319463868FEF738FCF861FB69002B01D11F
:20A840000023F4E0FB695A1CFA617B221A703B68DB685A1C3B68DA603B685B69002B04D006
:20A86000FB695A1CFA610A221A703B689A68FB681A443B689A60A0E03B685B69002B22D0E6
:20A880003B68DB6819463868FEF70EFCF861FB69002B01D10023CAE000237B6107E0FB6903
:20A8A0005A1CFA6109221A707B6901337B613B68DB687A699A42F2D33B689A683B68DB6829
:20A8C0001A443B689A60BB691B6A39681846FFF76FF80346002B01D10023A8E03868FEF7F2
:20A8E0007DFC3B685B69002B01D0022300E00123FB60F9683868FEF7D7FBF861FB69002B48
:20A9000001D1002393E0FB695A1CFA613A221A703B685B69002B04D0FB695A1CFA610922EE
:20A920001A703B689A68FB681A443B689A603968B869FFF735FC0346002B01D1002376E0E2
:20A940003868FEF74BFC3B685B69002B01D0012200E00022BB691B68002B01D0012300E0EC
:20A9600000231344FB60FB68013319463868FEF79BFBF861FB69002B01D1002357E0BB69A9
:20A980001B68002B04D0FB695A1CFA612C221A703B685B69002B04D0FB695A1CFA610A2261
:20A9A0001A70FB6900221A703B689A68FB681A443B689A60BB691B68BB61BB69002B7FF475
:20A9C0005BAF3B685B69002B03D03B68DB68013300E0022319463868FEF766FBF861FB69D7
:20A9E000002B01D1002322E03B685B69002B10D000233B6107E0FB695A1CFA6109221A7033
:20AA00003B6901333B613B68DB68013B3A699A42F1D3FB695A1CFA617D221A70FB69002279
:20AA20001A703B68DB685A1E3B68DA60012318462037BD4680BD80B586B000AFF860B960AD
:20AA40007A6000237B61FB68002B02D0BB68002B01D1002333E0FB689B687B617B68002B17
:20AA600017D002E07B691B687B617B69002B1CD07B691B6A002B18D07B691B6A1946B8686B
:20AA800013F0ACF80346002BECD10EE07B691B687B617B69002B08D07B691B6A1946B868DE
:20AAA000FEF7ECF80346002BF0D17B69002B03D07B691B6A002B01D1002300E07B691846FB
:20AAC0001837BD4680BD80B582B000AF78603960002239687868FFF7AEFF03461846083734
:20AAE000BD4680BD80B483B000AF786039607B683A681A603B687A685A6000BF0C37BD464C
:20AB00005DF8047B704780B584B000AF786039600023FB603B68002B06D07B68002B03D01E
:20AB20007A683B689A4201D100231EE07B689B68FB60FB68002B09D17B683A689A603B68F6
:20AB40003A685A603B6800221A600DE0FB685B68002B09D0FB685B6839681846FFF7C2FF67
:20AB60007B689B683A685A60012318461037BD4680BD80B483B000AF78607B6818460C3718
:20AB8000BD465DF8047B704780B586B000AFF860B9607A603B6000237B6100233B61FB6806
:20ABA000002B09D0BB68002B06D07B68002B03D0FA687B689A4201D1002336E03B6A002B90
:20ABC00009D0B868FFF7D5FF78617B68DB6843F400733B610EE03968B868FEF7C3F8786135
:20ABE0007B69002B01D100231FE07B68DB6823F400733B617B68DB6803F40073002B09D171
:20AC00007B681B6A002B05D03B685B687A68126A104698477B687A691A627B683A69DA60D1
:20AC20007968F868FFF76FFF034618461837BD4680BDFFFF80B588B002AFF860B96087ED38
:20AC4000000B97ED000B00F03BF8786100230093094B7A69B968F868FFF796FF0346002BF1
:20AC600001D07B6903E07869FEF7FEF8002318461837BD4680BD00BF7009FE1F80B588B09E
:20AC800002AFF860B9607A60786800F061F8786100230093094B7A69B968F868FFF774FFDF
:20ACA0000346002B01D07B6903E07869FEF7DCF8002318461837BD4680BD00BF7009FE1F79
:20ACC00080B584B000AF87ED000B1F48FEF7B6F8F860FB68002B2CD0FB680822DA60F968C9
:20ACE000D7E90023C1E9062315A3D3E90023D7E9000110F09DFE0346002B04D0FB686FF0A1
:20AD000000425A6115E04FF00002104BD7E9000110F084FE0346002B04D0FB684FF0004236
:20AD20005A6106E0D7E9000110F0ACFE0246FB685A61FB6818461037BD4680BDAFF3008037
:20AD40000000C0FFFFFFDF417009FE1F0000E0C180B584B000AF78600F48FEF76FF8F860E4
:20AD6000FB68002B12D0FB681022DA600A497868FDF7F8FF0246FB681A61FB681B69002B3E
:20AD800004D1F868FEF770F8002300E0FB6818461037BD4680BD00BF7009FE1F80B582B01A
:20ADA00000AF0748FEF74AF878607B68002B02D07B684022DA607B6818460837BD4680BD67
:20ADC0007009FE1F80B582B000AF7860034B5B687868984700BF0837BD4680BD7009FE1F4B
:20ADE00080B485B000AF78607B68B3F804311A467B689B5CFB737B68B3F8043101339AB2B5
:20AE00007B68A3F80421FB7B18461437BD465DF8047B704780B483B000AF78600B46FB7038
:20AE20007B68B3F8043119467B68FA785A547B68B3F8043101339AB27B68A3F8042100BF48
:20AE40000C37BD465DF8047B704780B483B000AF78607B68B3F8043101339AB27B68A3F872
:20AE6000042100BF0C37BD465DF8047B704780B485B000AF78607B68B3F804311A467B6827
:20AE80009B5C1B021AB27B68B3F8043101337968CB5C1BB213431BB2FB817B68B3F80431A4
:20AEA00002339AB27B68A3F80421FB8918461437BD465DF8047B704780B483B000AF7860C5
:20AEC0000B467B807B881B0A99B27B68B3F804311A46C9B27B6899547B68B3F8043101334E
:20AEE0007A88D1B27A68D1547B68B3F8043102339AB27B68A3F8042100BF0C37BD465DF885
:20AF0000047B704780B483B000AF78607B680022A3F8042100BF0C37BD465DF8047B7047B8
:20AF200080B582B000AF78607868FFF7EBFF7B68002283F806217B68002283F807217B6831
:20AF40000022A3F808217B68002283F80A217B68002283F80B2100BF0837BD4680BD90B531
:20AF600083B000AF78600B46FB707B68B3F85A314FF6FF72934204D17B680122A3F85A21C6
:20AF800007E07B68B3F85A3101339AB27B68A3F85A217B68D3F84C4178687B68D3F85431EA
:20AFA00000224FF48271A0477868FFF7B9FF7B6893F859217B6883F806217B68FA7883F887
:20AFC00007217B68B3F85A217B68A3F808217B6893F80631002B08D17B6893F84831012BDD
:20AFE00003D17B68012283F80A2100BF0C37BD4690BD90B583B000AF786039607B68002BD9
:20B0000002D14FF0FF3334E04FF4AE720021786811F04CFF7B684FF0FF32C3F840217B68D6
:20B020004FF0FF32C3F844213B68002B02D14FF0FF331EE03B681B78012B06D03B681B7802
:20B04000022B02D04FF0FF3313E03B685B68002B03D03B689B68002B02D14FF0FF3308E02C
:20B060007B683A6803F5A47413460FCB84E80F00002318460C37BD4690BD80B483B000AF63
:20B08000786039607B683A68C3F8442100BF0C37BD465DF8047B704780B483B000AF78601C
:20B0A00039607B683A68C3F8402100BF0C37BD465DF8047B704780B483B000AF78600B4687
:20B0C000FB707B68FA7883F8592100BF0C37BD465DF8047B704780B487B000AF78603960A0
:20B0E0004FF6FF73FB8200233B6126E07A683B6913441B781A46FB8A5340FB820823FB606C
:20B1000015E0FB8A03F00103002B0AD0FB8A5B08FB82FB8A83F4BF4383F07E03DB43FB82C7
:20B1200002E0FB8A5B08FB82FB68013BFB60FB68002BE6D13B6901333B613A693B689A42F3
:20B14000D4D3FB8A5BBA9BB218461C37BD465DF8047B704790B585B000AF78600B467B80D5
:20B160007B68D3F84C417B687A68B2F8042198187B68D3F840217B68D3F854317988A04726
:20B18000F8607B88FA689A4201D100230EE07B88FA689A4208DAFB68002B02DA6FF0030341
:20B1A00004E06FF0020301E06FF0030318461437BD4690BD90B585B000AF78600B467B80BB
:20B1C0007B68D3F8504178687B68D3F840217B68D3F854317988A047F8607B88FA689A428D
:20B1E00001D100230EE07B88FA689A4208DAFB68002B02DA6FF0030304E06FF0020301E051
:20B200006FF0030318461437BD4690BD80B584B000AF78607B6893F84831012B22D17A68F8
:20B220007B68B3F8043119461046FFF754FF0346FB8102217868FFF78DFF03467B7397F93C
:20B240000D30002B02D097F90D300CE07868FFF70EFE03467B817A89FB899A4202D06FF040
:20B26000040300E0002318461037BD4680BD80B586B000AF786039607B68D3F840317B6159
:20B280007B68D3F844217B68C3F840217868FFF747FE3B6800221A707B6893F84831012B1F
:20B2A00031D101217868FFF755FF03467B737B687A69C3F8402197F90D30002B02D097F9CD
:20B2C0000D307BE03B6801221A707868FFF788FD03461A467B6883F8062101217868FFF705
:20B2E00039FF03467B7397F90D30002B02D097F90D3063E07868FFF773FD03461A467B6833
:20B3000083F8072159E07B6893F84831022B54D101217868FFF71EFF0346FB747B687A6985
:20B32000C3F8402197F91330002B02D097F9133044E03B6801221A707868FFF786FD072159
:20B340007868FFF707FF0346FB7497F91330002B02D097F9133031E07868FFF7D3FD78681F
:20B36000FFF785FD03461A467B68A3F808217868FFF77DFD03463B827868FFF778FD03461B
:20B38000FB817868FFF72CFD03461A467B6883F806217868FFF724FD03461A467B6883F806
:20B3A00007213B8A002B02D06FF0050306E0FB89FF2B02D96FF0050300E0002318461837B6
:20B3C000BD4680BD80B582B000AF78600B467B807868FFF797FD7B6893F84831012B07D19E
:20B3E0007B6893F8063119467868FFF713FD1DE07B6893F84831022B18D17B68B3F80831A2
:20B4000019467868FFF758FD00217868FFF754FD7B8802339BB219467868FFF74DFD7B6873
:20B4200093F8063119467868FFF7F4FC7B6893F8073119467868FFF7EDFC00BF0837BD4660
:20B4400080BD80B584B000AF78607B6893F84831012B0ED17A687B68B3F804311946104673
:20B46000FFF739FE0346FB81FB8919467868FFF723FD7B68B3F8043119467868FFF79AFE71
:20B4800003467B7397F90D3018461037BD4680BD80B584B000AF78607B68B3F80831FB8190
:20B4A0007B6893F806317B737B6893F807313B7300237B7207F1090319467868FFF7D7FE87
:20B4C0000346FB7297F90B30002B02D097F90B3057E07B6893F84831022B08D17B68B3F871
:20B4E0000831FA899A4202D06FF0050349E07B6893F84831012B08D17B6893F806317A7BCC
:20B500009A4202D06FF006033BE07B6893F807313A7B9A4234D07B6893F80731A3F1800203
:20B520003B7B9A4229D101217868FFF713FE0346FB7297F90B30002B02D097F90B3020E02D
:20B540007868FFF74DFC0346BB727868FFF75EFE0346FB7297F90B30002B02D097F90B30DB
:20B560000FE0BB7A002B02D0BB7A042B02D96FF0010306E097F90A3003E06FF0010300E032
:20B58000002318461037BD4680BD80B582B000AF78600B467B807B8819467868FFF712FF20
:20B5A00000BF0837BD4680BD80B586B000AFF8600B467A607B81F868FFF76AFF0346FB743D
:20B5C00097F91330002B02D097F9133056E00121F868FFF7BFFD0346FB7497F91330002BA8
:20B5E00002D097F9133049E0F868FFF7F9FB0346BB74BB7CFA2B02D96FF001033EE0BB7CCC
:20B600009BB21946F868FFF7A5FD0346FB7497F91330002B02D097F913302FE000237B611D
:20B6200010E0F868FFF723FC03463B827B68002B05D07B695B007A6813443A8A1A807B6902
:20B6400001337B61BB7C5B08DBB21A467B699342E7DBF868FFF7DAFD0346FB7497F9133020
:20B66000002B02D097F9133008E0BA7C7B895B009A4202D06FF0010300E0002318461837BC
:20B68000BD4680BD80B582B000AF7860396039687868FFF7AEFC034618460837BD4680BD9C
:20B6A00080B586B000AFF860084611461A460346FB720B463B811346FB80FB88002B02D0FC
:20B6C000FB887D2B02D94FF0FF332EE03A89FB881344B3F5803F02D94FF0FF3325E0FB7A1B
:20B6E0001946F868FFF73BFC0421F868FFF74DFF3B891946F868FFF7DFFBFB881946F86802
:20B70000FFF7DAFBF868FFF79CFE0346FB7597F91730002B02D097F9173006E0FB883A6AFD
:20B720001946F868FFF740FF034618461837BD4680BD80B586B002AFF8607B600B467B8143
:20B7400013463B8139897A897B6800930B460321F868FFF7A5FF034618461037BD4680BDFC
:20B7600080B483B000AF78607B68DA687B681B699A4205D17B6800221A617B680022DA60DE
